:400000000080002011000000450800004508000008B5044B1A6803F53F5302331A6000F019FC00BFFA46004010B5054C237833B9044B13B10448AFF300800123237010BDC8
:400040004881FF1F00000000403A0000084B10B51BB108490848AFF300800848036803B910BD074B002BFBD0BDE81040184700BF000000004C81FF1F403A0000C880FF1F0E
:400080000000000008B5012000F058FE012000F049FE012000F03AFE08BD00BF08B5002000F04CFE052000F031FC00F011FE20B9012000F043FE232008BD00F01FFE20B986
:4000C000012000F03BFE392008BD00F011FE20B9012000F033FE362008BD00F001FE20B9012000F02BFE332008BD012000F026FE002000F017FE052000F008FC00F0E8FD01
:4001000020B9012000F00EFE302008BD00F0F6FD20B9012000F006FE382008BD00F0E8FD20B9012000F0FEFD352008BD00F0D8FD20B9012000F0F6FD322008BD012000F028
:40014000F1FD002000F0E2FD052000F0DFFB00F0BFFD20B9012000F0D9FD2A2008BD00F0CDFD20B9012000F0D1FD372008BD00F0BFFD20B9012000F0C9FD342008BD00F045
:40018000AFFD20B9012000F0C1FD312008BD012000F0BCFD7A2008BD10B501F06DFC70B101F0A4FA0024064B1C60012000F0E6FC2146204600F03CFD024800F0D1FC10BD2F
:4001C0006481FF1F483A000010B5064C23680A3323600021012000F02BFD208800F046FD10BD00BF6481FF1F30B5ADF2044D0021084600F01DFD244800F0B2FC012001F0EA
:40020000CFFA012000F0E6FB40F6340001F0D4FB0024254613E001F09BFD10F0800F0DD01A4B03EBC503D3E9000103F0A9FBC0B201F02AFD632D00DD002501350134144B0D
:400240009C42E8DD40F6C41001F0B6FB002001F0A7FA002000F0BEFB0E4A92E803000090ADF80410090C8DF80610684601F0FCFA094B1B6823B901F085FA084801F01EFCD3
:400280000DF2044D30BD00BF503A00009881FF1F1FA10700583A00006481FF1FC901000008B5FFF7A1FF08BD30B5ADF2044D0021084600F0BDFC244800F052FC012000F09B
:4002C0007DFB012000F06EFB40F6340001F000FB0024254613E001F03BFD10F0800F0DD01A4B03EBC503D3E9000103F049FBC0B201F0CAFC632D00DD002502350134144B0A
:400300009C42E8DD40F6282001F0E2FA002000F055FB002000F046FB0E4A92E803000090ADF80410090C8DF80610684601F09CFA094B1B6823B901F025FA084801F0BEFB5E
:400340000DF2044D30BD00BF603A00009881FF1F1FA10700683A00006481FF1FC901000008B5FFF7A1FF08BD10B501F069FA00F0200000F0FF0470B101F05CFA4A2801D09B
:400380006A2802D1FFF790FF05E0442801D0642801D1FFF729FF002CE7D110BD0000000038B562B63C4801F0F5FB3C4801F042FC3B4801F017FC3B4801F0C4FB00F0E6FF58
:4003C00001F08AFB00F026FC012000F0D7FB01F005FD01F091FC01F01FFA01F0CBFA01F03DFB00F0D7FB00F015FC2F4800F0B8FBFFF748FE00F0DEFF00241DE02B4880FB43
:400400000430E317C3EBE000400002F091FF20A3D3E9002302F0F2FF01F0FEFC0022244B02F0ECFF0022234B02F036FE224B03EBC403C3E900010134632CDFDDFFF72EFE39
:400440000446002000F0BEFF002001F055FB00F0D1FF01F005F805460A2000F057FA012001F04AFB00F0C6FF00F0FAFFB5F5486F01DC322C02D1FFF717FFDFE740F6DE5303
:40048000984201DC352CD9D1FFF7AEFED6E700BF182D4454FB21094099010000A10200006103000069030000483A00001F85EB5100006040000054409881FF1FFEE700BF9C
:4004C000F0B40022174611E050F82760F3B226F0FF0608E001EB420511F812406D78A5550132013BDBB2002BF4D10137222FEBD9F0BC70470C4B1B78DBB203F007010B4AA1
:4005000011701B09013213702022094B1A70022203F683031A708422D8331A704422A3F2E2231A70704700BFCF0100496E580040FD51004008B50A46002103F078FA08BDD3
:4005400008B503F069FA08BD38B50024344B1C80502202331A70172202331A80182331490B7002310A80304A13704FF49C71023211800232137004222C492D48FFF7E0FFA3
:4005800006222C4B1A705222A3F580731A702A4B1B78DBB2294A13704FF4E162284B1A8041F25122023B1A8019250CE0254B1B7803F0010343EA440404F003044FF4F070B7
:4005C00001F01AFC013D0DB1032CEFD115B90320FFF774FF1C4A4FF4807313800723137000231A490B704820023108701370053213700222164B1A7004220A331A70154A27
:40060000137843F00F031370013A137843F001031370013A137843F08003137038BD00BF80400040864000408A4000404407004800410040004300400F010049A14600400D
:400640002242004025420040044000400640004001400040A2430040012814D810B44000C0B2094B53F820101A18147C0A7822430A700130C0B253F820201844017C137870
:400680000B43137010BC7047703A0000012816D810B44000C0B20A4B53F820101A18147C0A7822EA04020A700130C0B253F820201844017C137823EA0103137010BC704766
:4006C000703A0000012808D8044B03EB800252691844017F13780B4313707047703A0000012809D8054B03EB800252691844017F137823EA01031370704700BF703A000094
:4007000038B572B63A4A137843F00403137000240BE0384863001A19510001440A46898C106AFFF707FF0134E4B2072CF1D900240BE03049A3001819420088188022416DEC
:40074000006DFFF7FDFE0134E4B2002CF1D02A494FF09040FFF7B4FE0A25284B1D70284A137843F0020313701032137843F002031370244C237843F040032370A2F5863267
:40078000513A137843F01003137008221E491F48FFF7D6FE08221E491E48FFF7D1FE2A461D491E48FFF7CCFE08221D491D48FFF7C7FE08221C491D48FFF7C2FE2A461C49B1
:4007C0001C48FFF7BDFE1C4A137843F0080313701A4D61232B70FFF7B7FE81232B70FFF789FE0E2221461648FFF7AAFE38BD00BFE8460040703A00008C00004883580040F7
:4008000003500140A04300400C0700480251004014070048C25100401C070048F05100402807004812510040300700482251004038070048305100402243004000480040B0
:40084000B043004008B503F0BBF803680C2B00D1FEE7FEE708B5104E104D16E029686B68AC68002204E051F8040B43F8040B0432A242F8D1E868002203E0002143F8041B64
:4008800004328242F9D11035013E002EE6D103F09DF8FFF785FDFEE701000000D03C000008B5104A104B1A60104A136843F40073136000230AE0032B03D80D4A52F8231051
:4008C00000E00C490C4A42F8231001332F2BF2D90A4B1A780A4B1A70074A0A4B1A60FFF70FFF08BD0004FA050CED00E014ED00E000000000450800000080FF1FBC760040DE
:40090000C080FF1F08ED00E001BE704710B5044605E0084B186801F06FFAA4F50044B4F5004FF6D8034B586800FB04F001F064FA10BD00BFCC80FF1F08B5034B1B7A00FB6D
:4009400003F001F059FA08BDCC80FF1F70B504460E46074B1D681F2802D90020FFF7D4FF04F01F04103455F8240045F8246070BD08ED00E038B504460D46072902D9002028
:40098000FFF7C2FF1F2C02D90020FFF7BDFF04F01F0000F1604000F564406D01EDB2057038BD00BF044A137803F0FD03400000F0020018431070704700510040044A13781B
:4009C00003F0FE0300F0010018431070704700BF00510040044A137803F0BF03800100F040001843107070470051004010B50B4C237803F09F032370237803F0F0032370DB
:400A00002378184340F0100020700120FFF794FF237803F0EF03237010BD00BF2051004038B505460E4C237843F020032370237803F0BF0323700020FFF77EFF237803F0DC
:400A4000F003237023781D4345F0100525700120FFF772FF237803F0EF03237038BD00BF2051004070B5354B1A7802F08002D2B21A7033490A7802F0F00242F00F020A70BE
:400A800001310A7802F0F0020A7001310A7802F0F0020A701A7802F0DF021A701A7842F040021A704FF4CA760020FFF745FF234D2B7843F010032B700120FFF73DFF214B03
:400AC0001C78E4B22B7803F0EF032B700020FFF733FF04F00804E4B22B7843F010032B700120FFF729FF2B7803F0EF032B7014B90A20FFF721FF013E0CB1002ED4D10F4AB0
:400B0000137803F0BF031370137803F08003DBB213700232137803F0F00313700132137803F0F00343F00F0313700132137803F0F00343F00F03137070BD00BF2051004044
:400B4000225100402151004010B50446FFF78AFF2009FFF765FF04F00F00FFF761FF10BD38B505460078012404E0FFF7EDFF285D0134E4B20028F8D138BD00BF10B504463A
:400B8000FFF770FF2009FFF731FF04F00F00FFF72DFF10BD08B52820FFF7B8FE0320FFF725FF0520FFF7B2FE0320FFF71FFF0F20FFF7ACFE0320FFF719FF0120FFF7A6FEE4
:400BC0000220FFF713FF0520FFF7A0FE0620FFF7D5FF0E20FFF7D2FF2C20FFF7CFFF0820FFF7CCFF0120FFF7C9FF0C20FFF7C6FF0320FFF7C3FF0520FFF788FE08BD00BF6E
:400C000008B50C20FFF7BAFF0122014B1A7008BD6A81FF1F08B5054B5B7823B9FFF7BAFF0122024B5A70FFF7EBFF08BD6A81FF1F08B5032819D8DFE800F002070D1381F0D8
:400C40008000FFF79BFF08BDA1F14000C0B2FFF795FF08BDA1F16C00C0B2FFF78FFF08BDA1F12C00C0B2FFF789FF08BD10B584B000238DF80E30092211E0144BA3FB0013D5
:400C8000DB081C4603EB83035900431ADBB2303304A9114401F80C3C2046013AD2B20928EBD80A4BA3FB0013DB0803EB83035900431ADBB2303304A9114401F80C3C01AB87
:400CC0009818FFF74DFF04B010BD00BFCDCCCCCC024B1878C0F34010704700BF31510040024B187800F00100704700BFF1510040014B1878C009704731510040024B1878B8
:400D0000C0F38010704700BF31510040044A137803F0EF03000100F0100018431070704730510040044A137803F0F703C00000F0080018431070704730510040044A13787C
:400D400003F0FD03400000F002001843107070473051004038B59DF81040651EEDB2032D51D8013809282ED8DFE800F0052D2D052D2D0F192D230F2B03D92548007840B264
:400D800022E02448007840B21EE00F2B03D92248007840B218E02148007840B214E00F2B03D91F48007840B20EE01E48007840B20AE00F2B03D91C48007840B204E01B48FA
:400DC000007840B200E0002001EB401101FB02F2D20B91B20D2B0BD8C3F10E0192B20A4191B2621E124800EB82020133937005E0631E0F4A02EB83030F229A70013C0C4B0B
:400E000023F8241038BD0020FFF77EFD38BD00BF180100491C010049190100491D0100491A0100491E0100491B0100491F0100496C81FF1FF8B5074600F0E6FF06460D4D7D
:400E40002B7843F003032B700B4C237843F0030323700A4B1F700320FFF76EFD2B7803F0FC032B70237803F0FC032370304600F0CFFFF8BDF8460040F94600409258004075
:400E8000F8B504460022C14B1A7401285DD13822BF4B1A70042202331A70062201331A70002501331D7001331D703F2201331A7002331D7001331D7001331D7001260A3301
:400EC0001E70502203F527631A70072201331A70292201331A7001331D70552203331A705A2201331A7001331D7002331E70112201331A70192201331A70972201331A70DF
:400F00004420FFF797FF5822A24B1A7001331D70052705331F70022201331A7001331D7001331D70284600F0C5FA42F6AB129A4B1A603146384600F0E1FA3146252000F0DB
:400F400061FB96491D20FFF701FD022C5DD138228F4B1A70042202331A70062201331A70002501331D7001331D703F2201331A7002331D7001331D7001331D7001260A33B2
:400F80001E70502203F527631A70272201331A702C2201331A7001331D70552203331A705A2201331A70052701331F7002331E70112201331A70192201331A709722013357
:400FC0001A704420FFF736FF5822724B1A7001331D7005331F70022201331A7001331D7001331D70284600F065FA4FF47A426A4B1A603146384600F081FA3146252000F034
:4010000001FB67491D20FFF7A1FC032C5DD138225F4B1A70042202331A70062201331A70002501331D7001331D703F2201331A7002331D7001331D7001331D7001260A3310
:401040001E70502203F527631A70272201331A702C2201331A7001331D70552203331A705A2201331A70052701331F7002331E70112201331A70192201331A709722013396
:401080001A704420FFF7D6FE5822424B1A7001331D7005331F70022201331A7001331D7001331D70284600F005FA4FF47A423A4B1A603146384600F021FA3146252000F0F4
:4010C000A1FA38491D20FFF741FC042C5DD138222F4B1A70042202331A70062201331A70002401331C7001331C703F2201331A7002331C7001331C7001331C7001250A3376
:401100001D70502203F527631A70272201331A702C2201331A7001331C70552203331A705A2201331A70052601331E7002331D70112201331A70192201331A7097220133DA
:401140001A704420FFF776FE5822124B1A7001331C7005331E70022201331A7001331C7001331C70204600F0A5F94FF47A420A4B1A602946304600F0C1F92946252000F0D9
:4011800041FA09491D20FFF7E1FBF8BD6C81FF1F004E004094580040BC84FF1F85140000891400008D140000911400002DE9F04182B0394D4FF0010885F80080374E002452
:4011C0007474102000F088F9102000F009FA07211D20FFF7CFFB0427314B1F7001331C7007331C702F4A137843F0180313702E4B1C7003F2F5231C7001331C700A22A3F26E
:4012000009331A7001331C7002331C705B2205331A705E2201331A7004331C701422A3F68C231A70CDF8008010234FF4004247F602710320FFF78EFD0223009310234FF4A0
:40124000004249F2DA012046FFF784FD0323009310234FF4004249F2DA012046FFF77AFD009710234FF4004249F2DA012046FFF771FD2B78013B06EB83039A780B4B1A7068
:401280002B78013B36F82320094B1A802878FFF7F7FD02B0BDE8F081DC80FF1F6C81FF1F96580040075B0040935800400E4E00400C4E004070B500F0A7FD06462A4B1B78DB
:4012C0002A4B1A7842F001021A701A7842F010021A7010331A7842F001021A701A7842F010021A70224D2B7843F002032B70214C237843F0020323701F4A137843F00303EF
:4013000013700320FFF718FB2B7803F0FD032B70237803F0FD032370184A137843F0060313707A22164B1A70164A137843F0010313701032137843F0010313700F3A137879
:4013400043F0010313701032137843F0010313704FF000530C4A1360A2F5C0721360304600F056FD70BD00BFDC80FF1FAA430040F8460040F9460040915800407758004014
:4013800082580040A143004080E200E008B5084B9B7C4BB9064BDB7C13F0FF0F01D1FFF705FF0122024B9A74FFF784FF08BD00BF6C81FF1F024A137843F00103137070472F
:4013C000004E0040094B1B7C13F0FF0F03D0074B5B7CDBB203E0064B1B7803F00103012B01D00028EED01846704700BF6C81FF1F014E0040154B1B7803F00303012B07D8D4
:40140000134B1888023B1B889BB243EA004013E0022B0AD10E4B1888023B1B7843EA00430C4A107843EA002006E00B4B188883B2074A108843EA0040084B1B7C13F0FF0F53
:4014400002D00022054B5A74704700BF144E0040124E0040114E0040104E00406C81FF1F064B5B69C01A4FF47A7303FB00F0044B1B6890FBF3F000B2704700BF6C81FF1FDA
:40148000BC84FF1F704700BF704700BF704700BF704700BF10B5002404E02046FFF720F90134E4B2012CF8D9FF22014B1A7010BDDD80FF1F10B50446FFF7ECFF2046FFF760
:4014C00001F9014B1C7010BDDD80FF1F014B188880B2704780400040034B1A7800F0F80010431870704700BF82400040024B187800F00700704700BF8240004070B5054626
:401500000E46FFF7F3FF0446FFF7E0FFA84256D02B4B1B7803F0010294B900B185B938B9284B1D80284A137803F0BF03137070BD254A137843F040031370224B1D8070BD78
:4015400022B3002321490B7001240F310C7004310B700C390B7803F07F030B701A4B1B7813F0080F00D08DB9194B18800721013B1970164B1B7813F0010FFAD110490B7886
:4015800003F0FE030B700021104B19700C4B1B7813F0010F0DD00E4B1D800EB1032200E001220A4B1A70094B1B7813F0010FFAD170BD044B1D8002490B7813430B7070BD77
:4015C000A243004080400040824000400140004002400040014B188880B2704700410040034B1A7800F0F80010431870704700BF02410040024B187800F00700704700BF85
:401600000241004070B505460E46FFF7F3FF0446FFF7E0FFA84256D02B4B1B7803F0010294B900B185B938B9284B1D80284A137803F0BF03137070BD254A137843F040033E
:401640001370224B1D8070BD22B3002321490B70012413310C7004390B7008390B7803F07F030B701A4B1B7813F0080F00D08DB9194B18800721013B1970164B1B7813F07A
:40168000010FFAD110490B7803F0FE030B700021104B19700C4B1B7813F0010F0DD00E4B1D800EB1032200E001220A4B1A70094B1B7813F0010FFAD170BD044B1D80024940
:4016C0000B7813430B7070BDA143004000410040024100400140004002400040024A137843F080031370704774650040024A137803F07F031370704774650040014B1870EB
:40170000704700BF84650040014B1878704700BF64650040014B1860704700BF24650040014B1868704700BF44650040014B1860704700BF0465004008B501E0FFF7F0FF1B
:40174000FFF7E2FF10F0080FF8D108BD10B50B4C2046FFF7DFFF2046FFF7E8FF00F054FB074A137843F01003137000F051FBFFF7E3FF0020FFF7C2FF10BD00BFFF356E0156
:401780009465004008B5054B1B7823B9FFF7DEFF0122024B1A70FFF7A1FF08BD8481FF1F044A137803F0DF03400100F02000184310707047005100407222084B1A70202254
:4017C000A3F580731A700622623B1A70472210331A70002251331A70704700BF8665004010B500F011FB04460A4A137843F020031370A2F58072137843F010031370013AA3
:40180000137843F01003137000F040F8204600F0FFFA10BD9665004008B5054B1B7823B9FFF7CAFF0122024B1A70FFF7D9FF08BD8581FF1F014B1878704700BF46640040AD
:40184000024B187800F07F00704700BF66640040034B1B7813F0040FFAD1024B18707047656400404564004038B5074B1B782BB938BDFFF7EDFF0134A4B201E005460024F4
:40188000285D0028F5D138BD8581FF1F054A137843F0080313701032137843F008031370704700BFA2430040024A137843F080031370704779650040014B1880704700BF99
:4018C000106A0040014B1880704700BF906A0040014B1880704700BF506A0040014B1870704700BF89650040014B1878704700BF69650040014B188880B27047B06A00403F
:4019000008B501E0FFF7F6FFFFF7EEFF10F0100FF8D108BD10B5154A137803F0C00343F00A0313701F32137843F001031370104C237843F00103237044F62060FFF7BCFFA4
:4019400044F62060FFF7BEFF40F62820FFF7C0FF0020FFF7C3FF00F057FA237843F01003237000F055FAFFF7CBFF10BD796500409965004008B5054B1B7823B9FFF7CAFFD7
:401980000122024B1A70FFF78FFF08BD8781FF1F024A137843F08003137070477C640040014B1880704700BF18680040014B1880704700BF98680040014B1880704700BFC9
:4019C00058680040014B1870704700BF8D640040014B1878704700BF6D640040014B188880B27047B868004008B501E0FFF7F6FFFFF7EEFF10F0100FF8D108BD10B5154A97
:401A0000137803F0C00343F0090313702032137843F001031370104C237843F00103237044F62060FFF7BCFF44F62060FFF7BEFF40F6C410FFF7C0FF0020FFF7C3FF00F0EC
:401A4000E3F9237843F01003237000F0E1F9FFF7CBFF10BD7C6400409D64004008B5054B1B7823B9FFF7CAFF0122024B1A70FFF78FFF08BD8881FF1F024B1878C0F3C00069
:401A8000704700BFC1510040014B1B68D864704708ED00E04001C0B2014B1870704700BF03E400E00822014B1A60704700E100E00822014B1A60704780E100E010B50446A4
:401AC000FFF7F6FF2046FFF7DFFF0720FFF7E2FFFFF7E8FF10BD00BF10B5002404E02046FEF7D4FD0134E4B2012CF8D9FF22014B1A7010BDDE80FF1F10B50446FFF7ECFF68
:401B00002046FEF7A9FD014B1C7010BDDE80FF1F014B1B681865704708ED00E04001C0B2014B1870704700BF04E400E01022014B1A60704700E100E01022014B1A607047C7
:401B400080E100E010B50446FFF7F6FF2046FFF7DFFF0720FFF7E2FFFFF7E8FF10BD00BF014B1B68D865704708ED00E04001C0B2014B1870704700BF07E400E08022014B3B
:401B80001A60704700E100E08022014B1A60704780E100E010B50446FFF7F6FF2046FFF7DFFF0720FFF7E2FFFFF7E8FF10BD00BF014B1B685865704708ED00E04001C0B26D
:401BC000014B1870704700BF05E400E02022014B1A60704700E100E02022014B1A60704780E100E010B50446FFF7F6FF2046FFF7DFFF0720FFF7E2FFFFF7E8FF10BD00BFB7
:401C0000014B1B689865704708ED00E04001C0B2014B1870704700BF06E400E04022014B1A60704700E100E04022014B1A60704780E100E010B50446FFF7F6FF2046FFF76F
:401C4000DFFF0720FFF7E2FFFFF7E8FF10BD00BF054A137843F0010313701032137843F001031370704700BFA8430040054B1A7802F0FD021A701A7800F0020010431870A7
:401C8000704700BF20580040014B1870704700BF805B0040064B1B78C3F3810303F19243063393F82031DBB2024A1370704700BF205800400846004008B5064B1A7802F0EB
:401CC000F3021A701A7800F00C0010431870FFF7E1FF08BD2058004010B50024054B1C7001331C702046FFF7E7FF2046FFF7BEFF10BD00BF2058004008B5074B1B7823B907
:401D0000FFF7EAFF0122044B1A70FFF7A1FF6420FFF7BAFF08BD00BF8981FF1F084A137843F0020313701032137843F00203137002F65932137843F001031370704700BFF5
:401D4000A3430040014B1870704700BF0F4F0040014B1878704700BF0F4F0040014B1880704700BF104F0040014B1880704700BF124F004008B5164A137803F0010313704F
:401D80000232137803F0FC031370124B1A7802F0CF021A701A7842F030021A701A7802F0F0021A701A7842F00F021A700A4A137843F00103137040F2AF40FFF7CFFF40F224
:401DC000AF40FFF7D1FF0020FFF7BCFF08BD00BF0C4F0040174F00400D4F004008B5054B1B7823B9FFF7C6FF0122024B1A70FFF795FF08BD8A81FF1F0230800803D000BF07
:401E000001380046FCD17047EFF3108072B6704780F31088704700BF30B5214A21F00043934287B01BDD1F4A934205DD02460B4601F030F907B030BD02AA00F035F800F0F5
:401E4000030001281ED0022811D0DDE9042300B3DDE9020100F040FA01F10041EAE7002300930022002300F053FF07B030BD01230093DDE90201DDE9042300F049FF01F12E
:401E80000041D7E7DDE90423DDE9020100F024FAD0E70124DDE90201009400F039FFC9E7FB21E93FFFFFEF7F2DE9F04F944C21F00047A7428FB040F381801446914A0E462C
:401EC000974226DC84A3D3E90023002940F3A08101F0E0F88C4B80469F42894600F083807FA3D3E9002301F0D5F802460B464046C4E90023494601F0CDF879A3D3E900238D
:401F000001F0C8F80125C4E9020128460FB0BDE8F08F7E4A974240F383807D4A974258DC3D15A5F21645A7EB05518B46824601F0FFFC01F0FDF98046894642464B46504642
:401F40005946CDE9088901F0A5F80022714B01F055FA8B46824601F0EBFC01F0E9F98046894642464B4650465946CDE90A8901F091F80022674B01F041FA00220023CDE9EA
:401F80000C0101F0A3FC002800F06A81002340464946002201F09AFC002814BF012302235D480221019000912A46214608A800F0B7FA002EC0F24A81054606E0C2E90001C2
:401FC00000250024C2E90245002528460FB0BDE8F08F02460B4601F05DF80025C4E90201C4E90001F1E740A3D3E9002301F052F83FA3D3E9002306460F4601F04BF802461B
:402000000B463046C4E90023394601F043F838A3D3E9002301F03EF80125C4E90201D4E700F02CFF34A3D3E900238046894601F0E5F90022394B01F02FF801F079FC054648
:4020400001F076F924A3D3E90023CDE9040101F0D5F902460B464046494601F01BF820A3D3E9002382468B46DDE9040101F0C6F91F2DCDE9020155DC294B6A1E53F82230A9
:402080009F424FD002460B465046594601F002F802460B4681468846C4E900234A4643465046594600F0F6FFDDE9022300F0F2FF02460B46002EC4E9022386DA4A4608F1E8
:4020C000004301F1004184E80C00E160A0606D427BE700BFAFF3008000004054FB21F93F3163621A61B4D03D0000601A61B4D03D7370032E8A19A33B83C8C96D305FE43F41
:40210000FB21E93F7BD90240FB21F93FFB213941FFFFEF7F000070414C3B00000000E03FCC3A0000DDE902235046594600F0B2FF3F15C1F30A53FB1A102B81468846C4E95A
:402140000001ABDD58A3D3E90023DDE9040101F055F98046894602460B465046594600F099FFCDE9060102460B465046594600F091FF42464B4600F08DFF4DA3D3E9002398
:4021800080468946DDE9040101F038F942464B4600F080FF02460B46CDE90201DDE9060100F078FF0B4602468846C1F30A517F1A312F8146C4E9002372DD3FA3D3E9002379
:4021C000DDE9040101F01AF98046894602460B46DDE9060100F05EFF02460B4682468B46DDE9060100F056FF42464B4600F052FF33A3D3E9002380468946DDE9040101F024
:40220000FDF842464B4600F045FFCDE9020139E700F042FF2E4B80469F42894622D02AA3D3E9002300F038FF02460B464046C4E90023494600F02EFF23A3D3E9002300F06E
:402240002BFF4FF0FF35C4E90201BEE66268E36802F1004203F1004345426260E360B4E603239DE610A3D3E9002300F015FF10A3D3E9002306460F4600F00EFF02460B46BE
:402280003046C4E90023394600F004FF08A3D3E9002300F001FF4FF0FF35C4E9020194E6DDE906ABFAE600BF0000601A61B4D03D7370032E8A19A33B0000002E8A19A33B59
:4022C000C14920259A837B393163621A61B4D03DFB21F93F000000002DE9F04F21F00046B6F1795F85B00C4692469B4605466BDA01F01EFB002800F0E7802A46234628466D
:40230000214601F07BF874A3D3E900238046894601F074F872A3D3E9002300F0BDFE42464B4601F06BF870A3D3E9002300F0B2FE42464B4601F062F86DA3D3E9002300F009
:40234000ABFE42464B4601F059F86BA3D3E9002300F0A0FE42464B4601F050F868A3D3E9002300F099FE42464B4601F047F8CDE900010022644B4046494601F03FF8DDE947
:40238000002306460F464046494601F037F85246804689465B462846214601F02FF802460B464046494600F075FE02460B463046394600F06FFE02460B460020534900F028
:4023C00069FE05B0BDE8F08F02460B4601F016F841A3D3E900238046894601F00FF840A3D3E9002300F058FE42464B4601F006F83DA3D3E9002300F04DFE42464B4600F0A2
:40240000FDFF3BA3D3E9002300F046FE42464B4600F0F4FF38A3D3E9002300F03BFE42464B4600F0EBFF36A3D3E9002300F034FE4B46424600F0E2FF354BCDE900019E4202
:4024400097DD344B00229E4238DCA6F5001300202E4916461F4600F01DFECDE902010022294B4046494600F0C9FF32463B4600F011FEDDE9002306460F464046494600F09F
:40248000BDFF5246804689465B462846214600F0B5FF02460B464046494600F0FBFD02460B463046394600F0F5FD02460B46DDE9020100F0EFFD05B0BDE8F08F164B002675
:4024C000CDE90223154FCAE71049002005B0BDE8F08F00BFAFF30080D43888BEE9FAA8BDC4B1B4BD9EEE213EAD529C804F7E923E9015CB19A001FA3E7751C1166CC1563FD3
:402500004C5555555555A53F0000E03F0000F03F3233D33F0000E93F0000E73F0000D23F2DE9F04F794CADF51D7D1F460B93D31E84FB0354DB17C3EBA403A69E744C23EA26
:40254000E37554F826406B1C26460994A3EB83037C1E0D95029402EBC3032D1B341904900A91089316D42C44013422AEA79F08E057F8250000F0DCFE0135A542E6E902010F
:4025800008D0002DF4DA013500200021A542E6E90201F6D1099B002B2FDB099B74AADDF8089002EBC30B0DF5E47A029B002BC0F295810B9B0026C3EB090824AB03EBC80886
:4025C000049B0027A3F1080524AB03EBC904F5E9022374E8020100F011FF02460B463046394600F059FD444506460F46EFD1EAE90267DA4509F10109D7D1099B10A91D4603
:4026000003F18043023B9B001A1D0A440B440F920E939CAB03EBC503002D53E928672BDD9CAB03EBC504A83C0DF13C0A0DF5E47B0022384B3046394600F0E0FE01F078F9A7
:4026400000F076FE0022344B8046894600F0D6FE02460B463046394600F01CFD01F068F974E802234AF8040F4946404600F014FD5C4506460F46DBD1089C30463946224638
:4026800000F08AFC00224FF07F5306460F4600F0B5FE00F0F9FB0022204B00F0AFFE02460B463046394600F0F5FC0F46064601F03FF9814600F03CFE02460B463046394667
:4026C00000F0E8FC002C06460F4640F3EE80681E10AB53F82030C4F1180243FA02F101FA02F29B1AC4F1170810AA42F82030894443FA08F8B8F1000F3DDD002D09F10109F4
:4027000040F3D382002214460FA911E0ABAAAA2A543C00000000703E0000704100002040C3F180700BB108600124013295420DDD51F8043F002CF3D0C3F1FF13013203F527
:402740007F4395420B604FF00104F1DC089B002B0DDD012B00F0B180022B08D16A1E10AB53F8223010A9C3F3150341F82230B8F1020F00F08180002200233046394601F071
:40278000A5F8002800F05B82099B05F1FF3B5B4510DC05F1804310AA013B0F9802EB8303002253F80419834242EA0102F9D1002A40F0B180099B10AA013B52F82330002B29
:4027C00040F071820E9A012352F8041901330029FAD0E9186A1C8A420C914BDC0D990B985118DB0001F180410593A79B05440139E80003EB810A24ABD20003EB000B74AB8E
:4028000013440193A2F10803069007934FF000095AF8040F00F08CFD029BEBE80201002B4FF000064FF000071BDB069B03EB0904079B09EB030824AB1C449844049BA3F11F
:402840000805F5E9022374E8020100F0D7FD02460B463046394600F01FFC444506460F46EFD1019B09F10809E3E802670193059B9945CDD10C9DCCE632463B460020B049AA
:4028800000F008FC06460F46002C3FF474AF089A0020AB4900F080FB02460B463046394600F0F8FB06460F4665E710D16B1E10AA52F823304FEAE3581CE76A1E10AB53F8BC
:4028C000223010A9C3F3160341F822304FE700229C4B01F019F858B980464CE700260027EAE90267DA4509F101097FF45EAE84E6002D09F10109C8BF4FF002083FF702AFAB
:4029000032463B4600208E4900F0C4FB4FF0020806460F462FE7089A10AB53F82B30183ACDF81490CDF8048008926BB90BF18043013B10A901EB830353F804190BF1FF3B6F
:40294000183A0029F8D00892089A00207C4900F023FBBBF1000F04460D46C0F2B6814FEACB030DF5E87810AA02EB8B0608EB03090493043609F1080756F8040D00F0D8FC07
:4029800022462B4600F03AFD002267E902016E4B2046294600F032FDB84504460D46EBD14B46CDF818B09B460DF5987ACDF808A0DDF824A04FF00009BAF1000FC0F226812B
:4029C0005DA3D3E90023DFF884815D4600260027002403E0A14510DBF8E90223F5E8020100F00CFD02460B463046394600F054FB0134A24506460F46ECDA029BABF1080BD9
:402A000003EBC903C3E9006772AB5B4509F10109D2D1A69BDDF818B0DDF808A0032B00F28380DFE813F0D100950095000400BBF1000F40F35481049BCDF808B053449846CA
:402A4000D3E90067D34658E9029A32463B464846514600F021FB04460D4602460B464846514600F017FB32463B4600F015FBC8E9000168E90245C34526462F46E3D1DA46B6
:402A8000DDF808B0BBF1010F40F32981049B0DF59C7B53449846D3E90067994659E902343046CDE902341A463946234600F0F4FA04460D4602460B46DDE9020100F0EAFAEE
:402AC00032463B4600F0E8FAC9E9000169E90245CB4526462F46E1D100231D4608F1080850AC184678E90223294600F0D5FA444503460D46F5D1019A002A00F0D880DAF8B5
:402B00000440DAF80C200A9FDAF80010DAF8080005F1004504F1004402F100427D613B617C60FA603960B860059B03F007000DF51D7DBDE8F08F00BF00000040FB21F93F37
:402B40000000F03F0000E03F0000703E683C000000242146049D0835554475E90223204600F09AFA55450446F7D1019B002B50D00A9F01F100450B46DAE9000187E830001F
:402B8000224600F087FABBF1000F03460D460DDD01241846FAE90223294600F07DFA0134A34503460D46F4DA019A0AB105F10045184629460A9BC3E90201059B03F00700C7
:402BC0000DF51D7DBDE8F08F00231C46049A0832924418467AE90223214600F05DFA0BF1FF3BBBF1FF3F03460C46F2D1019A0AB104F10044184621460A9BC3E90001059B8A
:402C000003F007000DF51D7DBDE8F08F00260027F3E626460F4622460A9C0B46DAE90001C4E9006700F036FABBF1000F03460D46AEDC184629460A9BC3E90201BDE7089B53
:402C400030465A423946CDF81490CDF8048000F0A3F900222C4B06460F4600F055FE002840D00022294B3046394600F0C7FB00F05FFE044600F05CFB0022234B00F0BEFB7C
:402C80000B4602463946304600F004FA00F050FE089B05F1010B1833089310AB43F8250043F82B4050E6012393E500244EE51846DAE90067DAE9022329460A9DC5E900674A
:402CC000C5E90401C5E902232EE7A69B032B3FF62BAFDFE803F0151010020DF5987A00231D4608E73046394600F022FE10ABAB4643F8250028E6002421460DF5987A34E768
:402D000000231C4672E700BF000070410000703E2DE9F04F21F00046B6F1795F85B00C4690469946054604DA00F002FE002800F085802A4623462846214600F05FFB0646B6
:402D40000F4602460B462846214600F057FB3EA3D3E9002382468B463046394600F04EFB3BA3D3E9002300F095F932463B4600F045FB39A3D3E9002300F08EF932463B4638
:402D800000F03CFB36A3D3E9002300F083F932463B4600F033FB34A3D3E9002300F07CF90E9BCDE900019BB30022334B4046494600F024FBDDE90023CDE90201504659464D
:402DC00000F01CFB02460B46DDE9020100F062F932463B4600F012FB42464B4600F05AF923A3D3E9002306460F465046594600F005FB02460B463046394600F04DF9024656
:402E00000B462846214600F045F905B0BDE8F08F02460B463046394600F0F0FA14A3D3E9002300F037F952465B4600F0E7FA2A46234600F031F905B0BDE8F08F284621469C
:402E400005B0BDE8F08F00BF7CD5CF5A3AD9E53DEB9C2B8AE6E55A3E7DFEB157E31DC73ED561C119A0012A3FA6F810111111813F495555555555C53F0000E03F21F00041C2
:402E8000704700BF00000000C1F30A522DE9F843A2F2FF36132E0B4604460D46884607461CDC002E3FDB3A4A864642FA06F901EA0902024317D034A3D3E9002300F0ECF8B1
:402EC0000022002300F02AFD20B1002D40DB28EA0905002738462946BDE8F883332E06DDB6F5806F2FD020461946BDE8F883A2F213424FF0FF3929FA02F910EA090FF2D0F5
:402F000021A3D3E9002300F0C7F80022002300F005FD0028DED0002D20DB454627EA090738462946D8E718A3D3E9002300F0B4F80022002300F0F2FC0028CBD0002D18DB76
:402F400000273D46C6E702460B4600F0A5F8CCE74FF4801343FA06F6B044B8E7142E10D00123C6F1340603FA06F6371928BF9844D3E725F00042074B224318BF1D46002713
:402F8000A8E705F10108C8E79C7500883CE4377EFFFF0F000000F0BFF8B5C1F30A5604460D460B46174606BB21F00043034325D000222F4B00F022FA2E4A044697420D46B8
:402FC0000B462ADBC1F30A56363E40F2FE723E44964228DC002E12DD23F0FF4323F4E00343EA065520462946F8BD40F2FF729642EBD102460B4600F04FF8F8BDF8BD16F1FD
:40300000350F1DDA4CF250339F420CDC14A1D1E9000122462B4600F031F811A3D3E9002300F0ECF9F8BD22460FA1D1E900012B4600F024F80CA3D3E9002300F0DFF9F8BDF1
:4030400023F0FF4323F4E003363643EA0655204629460022084B00F0D1F9F8BDAFF3008059F3F8C21F6EA5019C7500883CE4377E00005043B03CFFFF0000903C03F000430C
:4030800021F0004242EA0301704700BF81F0004102E000BF83F0004330B54FEA41044FEA430594EA050F08BF90EA020F1FBF54EA000C55EA020C7FEA645C7FEA655C00F08E
:4030C000E2804FEA5454D4EB5555B8BF6D420CDD2C4480EA020281EA030382EA000083EA010180EA020281EA0303362D88BF30BD11F0004F4FEA01314FF4801C4CEA113163
:4031000002D0404261EB410113F0004F4FEA03334CEA133302D0524263EB430394EA050F00F0A780A4F10104D5F1200E0DDB02FA0EFC22FA05F2801841F1000103FA0EF276
:40314000801843FA05F359410EE0A5F120050EF1200E012A03FA0EFC28BF4CF0020C43FA05F3C01851EBE37101F0004507D54FF0000EDCF1000C7EEB00006EEB0101B1F570
:40318000801F1BD3B1F5001F0CD349085FEA30004FEA3C0C04F101044FEA445212F5800F80F09A80BCF1004F08BF5FEA500C50F1000041EB045141EA050130BD5FEA4C0CC1
:4031C000404141EB010111F4801FA4F10104E9D191F0000F04BF01460020B1FA81F308BF2033A3F10B03B3F120020CDA0C3208DD02F1140CC2F10C0201FA0CF021FA02F1EB
:403200000CE002F11402D8BFC2F1200C01FA02F120FA0CFCDCBF41EA0C019040E41AA2BF01EB0451294330BD6FEA04041F3C1CDA0C340EDC04F11404C4F1200220FA04F0A9
:4032400001FA02F340EA030021FA04F345EA030130BDC4F10C04C4F1200220FA02F001FA04F340EA0300294630BD21FA04F0294630BD94F0000F83F4801306BF81F4801109
:403280000134013D4EE77FEA645C18BF7FEA655C29D094EA050F08BF90EA020F05D054EA000C04BF1946104630BD91EA030F1EBF0021002030BD5FEA545C05D140004941AA
:4032C00028BF41F0004130BD14F580043CBF01F5801130BD01F0004545F0FE4141F470014FF0000030BD7FEA645C1ABF194610467FEA655C1CBF0B46024650EA013406BF87
:4033000052EA033591EA030F41F4002130BD00BF90F0000F04BF0021704730B54FF4806404F132044FF000054FF0000150E700BF90F0000F04BF0021704730B54FF4806479
:4033400004F1320410F0004548BF40424FF000013EE700BF42004FEAE2014FEA31014FEA02701FBF12F07F4393F07F4F81F06051704792F0000F14BF93F07F4F704730B59F
:403380004FF4607401F0004521F0004120E700BF50EA010208BF704730B54FF000050AE050EA010208BF704730B511F0004502D5404261EB41014FF4806404F132045FEA72
:4033C000915C3FF4DCAE4FF003025FEADC0C18BF03325FEADC0C18BF033202EBDC02C2F1200300FA03FC20FA02F001FA03FE40EA0E0021FA02F11444C1E600BF70B54FF05B
:40340000FF0C4CF4E06C1CEA11541DBF1CEA135594EA0C0F95EA0C0F00F0DEF82C4481EA030621EA4C5123EA4C5350EA013518BF52EA033541F4801143F4801338D0A0FB21
:4034400002CE4FF00005E1FB02E506F00042E0FB03E54FF00006E1FB03569CF0000F18BF4EF0010EA4F1FF04B6F5007F64F5407404D25FEA4E0E6D4146EB060642EAC621F9
:4034800041EA55514FEAC52040EA5E504FEACE2EB4F1FD0C88BFBCF5E06F1ED8BEF1004F08BF5FEA500E50F1000041EB045170BD06F0004646EA010140EA020081EA0301C1
:4034C000B4EB5C04C2BFD4EB0C0541EA045170BD41F480114FF0000E013C00F3AB8014F1360FDEBF002001F0004170BDC4F10004203C35DA0C341BDC04F11404C4F12005B9
:4035000000FA05F320FA04F001FA05F240EA020001F0004221F0004110EBD37021FA04F642EB06015EEA430E08BF20EAD37070BDC4F10C04C4F1200500FA04F320FA05F0E8
:4035400001FA04F240EA020001F0004110EBD37041F100015EEA430E08BF20EAD37070BDC4F1200500FA05F24EEA020E20FA04F301FA05F243EA020321FA04F001F0004128
:4035800021FA04F220EA020000EBD3705EEA430E08BF20EAD37070BD94F0000F0FD101F00046400041EB010111F4801F08BF013CF7D041EA060195F0000F18BF704703F018
:4035C0000046520043EB030313F4801F08BF013DF7D043EA0603704794EA0C0F0CEA135518BF95EA0C0F0CD050EA410618BF52EA4306D1D181EA030101F000414FF00000FD
:4036000070BD50EA410606BF1046194652EA430619D094EA0C0F02D150EA013613D195EA0C0F05D152EA03361CBF104619460AD181EA030101F0004141F0FE4141F470012C
:403640004FF0000070BD41F0FE4141F4780170BD70B54FF0FF0C4CF4E06C1CEA11541DBF1CEA135594EA0C0F95EA0C0F00F0A7F8A4EB050481EA030E52EA03354FEA01312E
:4036800000F088804FEA03334FF0805545EA131343EA12634FEA022245EA111545EA10654FEA00260EF000419D4208BF964244F1FD0404F5407402D25B084FEA3202B61ACF
:4036C00065EB03055B084FEA32024FF480104FF4002CB6EB020E75EB030E22BFB61A754640EA0C005B084FEA3202B6EB020E75EB030E22BFB61A754640EA5C005B084FEA1C
:403700003202B6EB020E75EB030E22BFB61A754640EA9C005B084FEA3202B6EB020E75EB030E22BFB61A754640EADC0055EA060E18D04FEA051545EA16754FEA06164FEAC7
:40374000C30343EA52734FEAC2025FEA1C1CC0D111F4801F0BD141EA00014FF000004FF0004CB6E711F4801F04BF01430020B4F1FD0C88BFBCF5E06F3FF6AFAEB5EB030C6E
:4037800004BFB6EB020C5FEA500C50F1000041EB045170BD0EF0004E4EEA113114EB5C04C2BFD4EB0C0541EA045170BD41F480114FF0000E013C90E645EA060E8DE60CEA6E
:4037C000135594EA0C0F08BF95EA0C0F3FF43BAF94EA0C0F0AD150EA01347FF434AF95EA0C0F7FF425AF104619462CE795EA0C0F06D152EA03353FF4FDAE1046194622E7E7
:4038000050EA410618BF52EA43067FF4C5AE50EA41047FF40DAF52EA43057FF4EBAE12E74FF0FF3C06E000BF4FF0010C02E000BF4FF0010C4DF804CD4FEA410C7FEA6C5C69
:403840004FEA430C18BF7FEA6C5C1BD001B050EA410C0CBF52EA430C91EA030F02BF90EA020F0020704710F1000F91EA030F58BF994208BF90422CBFD8176FEAE37040F0B1
:40388000010070474FEA410C7FEA6C5C02D150EA013C07D14FEA430C7FEA6C5CD6D152EA033CD3D05DF8040B704700BF8446104662468C461946634600E000BF01B5FFF732
:4038C000B7FF002848BF10F1000F01BD4DF808EDFFF7F4FF0CBF012000205DF808FB00BF4DF808EDFFF7EAFF34BF012000205DF808FB00BF4DF808EDFFF7E0FF94BF0120E8
:4039000000205DF808FB00BF4DF808EDFFF7CEFF94BF012000205DF808FB00BF4DF808EDFFF7C4FF34BF012000205DF808FB00BF4FEA410212F5001215D211D56FF47873BA
:40394000B3EB625212D94FEAC12343F0004343EA505311F0004F23FA02F018BF404270474FF00000704750EA013005D111F0004008BF6FF0004070474FF00000704700BFEE
:403980004A0011D212F5001211D20DD56FF47873B3EB62520ED44FEAC12343F0004343EA505323FA02F070474FF00000704750EA013002D14FF0FF3070474FF00000704702
:4039C000014B1868704700BF4081FF1F0E4B70B51E460E4C0025E41AA410A54204D056F8253098470135F8E700F060F9084B094C1E46E41AA4100025A54204D056F82530B7
:403A000098470135F8E770BDB83C0000B83C0000B83C0000C03C000010B5431E0A44914204D011F8014B03F8014FF8E710BD03460244934202D003F8011BFAE77047000041
:403A4000000000000000000052454144590000004475636B200000004455434B200A00004A756D70200000004A554D50200A00001D510040005B0040FD510040005B004045
:403A800004040880035B00402443004040000000004F0040180040510040300000000140000680060140800900140140000800400140000A004C014000020050014020008A
:403AC000000601408C06004880000000FB21F93FFB2109407CD91240FB2119407A6A1F407CD92240BBFD2540FB2129403A462C407A6A2F405C4731407CD932409C6B34401F
:403B0000BBFD3540DB8F3740FB2139401BB43A403A463C405AD83D407A6A3F404C7E40405C4741406C1042407CD942408CA243409C6B4440AC344540BBFD4540CBC6464053
:403B4000DB8F4740EB584840FB21494083F9A200444E6E00FC291500D1572700DD34F50062DBC0003C999500419043006351FE00BBDEAB00B761C5003A6E2400D24D4200BC
:403B80004906E00009EA2E001C92D100EB1DFE0029B11C00E83EA700F535820044BB2E009CE98400B4267000417E5F00D6913900538339009CF439008B5F840028F9BD005F
:403BC000F81F3B00DEFF97000F980500112FEF000A5A8B006D1F6D00CF7E360009CB2700464FB7009E663F002DEA5F00BA277500E5EBC7003D7BF100F739070092528A007E
:403C0000FB6BEA001FB15F00085D8D00300356007BFC4600F0AB6B0020BCCF0036F49A00E3A91D005E619100081BE60085996500A0145F008D40680080D8FF0027734D004D
:403C400006063100CA561500C9A873007BE260006B8CC000020000000300000004000000060000000000000000000040FB21F93F000000002D44743E000000809846F83C22
:403C80000000006051CC783B00000080831BF0390000004020257A38000000802282E336000000001DF3693543000000F8B500BFF8BC08BC9E4670474D000000A1080000B3
:403CC000F8B500BFF8BC08BC9E46704729000000E03C0000C880FF1F8000000078030000000000000000E02EC05D00001800000000366E0101FFFF000000000000000000B8
:403D0000000000000000000000000000000000000000000000000000A83C00000000000000000000000000000000000000000000000000000000000000000000000000009F
:403D4000000000000000000000000000000000000000000000000000E080FF1F000000000000000000000000000000000000000000000000000000000000000000000000C5
:403D80000000000000000000000000000000000000000000000000000000000000000000000000000000000000000000000000000000000000000000000000000000000003
:403DC00000000000000000000000000000000000000000000000000000000000000000000000000000000000000000000000000000000000000000000000000000000000C3
:403E00000000000000000000000000000000000000000000000000000000000000000000000000000000000000000000000000000000000000000000000000000000000082
:403E40000000000000000000000000000000000000000000000000000000000000000000000000000000000000000000000000000000000000000000000000000000000042
:020000040003F7
:0200000480007A
:4000000001450040044F00400452004003640040036500400203014065040140380501402F07014001090140020B0140450C0140210D0140010F01403C14014026150140E5
:40004000561601403D170140421801401D190140041B0140074001400F4101400A42014009430140074401400545014005460140064701400B48014003490140054C0140B5
:40008000034D014008500140025101407E0201800A4B0D80164B0920108079047C42850F86388D0D840D8672890DE202EA0606180C010E0C0F131001121416081708192C4B
:4000C0001B032131230E241826052B0C2C022D312E042F06301C31303403350F382039023A023B203F014004470449FF4A074BFF4C404D204EF04F055008580459045A04D0
:400100005C335D035F01604061A86240632080038204870289248A088B408C038E0C91329344970C980399709A049B0A9D01A142A205A330A550A80AA940AA04AF02B37CA0
:40014000B501B60FB702BA80BF50C045C101C5E0C6B0C70CC81AC9FFCAFFCBFFCEF0CF44D00CD401D804D904DA04DB04DC33DD33DF01E6C0EA40EB020004030205510908EC
:400180000B800F081220134015201680180419111B121D401F402040213022202648270829512A402E802F68312033083401350136A838803A803B403F28404044014640F1
:4001C0004D014E804F4050405108530857245C205D015E805F08C0D5C24CC455CAFDCCF6CE68D091D210D6F004030590060807200D200E400F221401164417081C011E406C
:400200001F24261127182D802E082F083401368037283C043D023FA04501464047184C054F2255205E02678A8740A208A820AB04C0F0C2F0C4F0CA70CCF0CEF0D0E0D2302C
:40024000D680D8B0EA04AB109B10B3102E01360139083F044010410649FF4AFF4BFF4DA04F0450185280580459045A045B045C025D225F01604062C06440654066C068C0A7
:400280006AC06CC06EC09B039E019F02A101A602AA01B002B101B302B401BE10C010C106C5D1C702C813C9FFCAFFCBFFCDAFCE0FCF04D018D405D804D904DA04DB04DC22BE
:4002C000DD22DF01E040E2C0E440E540E6C0E8C0EAC0ECC0EEC0098010201208174019021A041D802390271029023020318041804580482049014A084E08520859015A04BA
:400300005B8077409F10C201C486CA01CC0CD018D224D60BE202EA068F100E01120136013E40404549FF4AFF4BFF4F0150185280540158045A045B045D995F0160406240D3
:4003400064406540668068806A806C806E8088048A028F019002920594069806AF01B001B101B206C041C9FFCAFFCBFFCD83CE03CF01D018D804D904DA04DC93DD09DF01CD
:40038000E040E240E440E540E680E880EA80EC80EE800201041009020C080E040F8019801C501F0824802C023F404102450246014802598571027340920494C099059A010A
:4003C000A00AA340A502A708A808AA20AB41C041C278CA10CE10D091D208D60BEC100117022304040517081C09020A220B010E04101C111012211427150816181808190888
:400400001C101D011F062040243F2508281829042B012D083038311032403308341F37073A223B203E043F04404549FF4AFF4BFF4D834E034F0150185602571158045904BA
:400440005A045B045C335D395F016040624064406540668068806A806C806E80C045C5ECC720C823C9FFCAFFCBFFCD83CE03CF01D018DA04DD09DF01E040E240E440E54032
:40048000E680E880EA80EC80EE800440062407400CA00E60164017281C041E401F1424182501268027482C012E402F18369037093E243F0141024502480249054C02500252
:4004C00052015C10660467206C086E046F0174A07590772086488B04948C9C019D909E049F20A218A501A680A748AB21B440C0F0C2F0C470CA70CCF0CEE0D081D218D620FE
:40050000E280EE1A4060410249FF4AFF4BFF4DA04F0450185A045D015F01604062C06440654066C068C06AC06CC06EC092019A029B0A9F05A004A103A404AA02AB0CB00473
:40054000B103B30CB401B602B802BE40C020C106C5D1C702C817C9FFCAFFCBFFCDAFCE0FCF04D018D280D405D804D904DA04DB04DC11DD11DF01E040E2C0E440E540E6C082
:40058000E8C0EAC0ECC0EEC009020A0410A0120419221A041B5022082380292230A042044604482849014F205088520459015B887102C20AC40ECA05CC0CD024D224D60B5D
:4005C000EE0AAA08B748E804EC1032023380364037043B10CCF0CE10302031043710860297109B109F04A020A642A780AB10AC20CC70E240EA60050459015C0497109D049B
:400600009F04A640A780C020D6C0871097109F04A640A780A804A901E210EA20130817017D088D04C40CDE01E4025E018604AB08AF01D60145089604B201D001EC010808EB
:400640000A040F409604A508C20E0710251058408840AE40AF80B704C020C820D480EE50AB10B510E8206201A508AC08AF40D802AA01B508EC08000C0A080E04100A11015B
:400680001A081B011C0200EA01FF0000000004C3300C00C310CF000020410020000F02C039C3000C000C020000C304100000080009043000388201203008090001C00230BC
:4006C000040F380002000020000014043406050002C0E0000AFFFFFF62A0F0410C0000001800040004040404333300010000000000004002001030100010101200000000F7
:40070000000000000000000000000000006363000000000038000000000000004500020504000400E8000000002B2B002000040000FFFF0080000000FA0000E01A00000093
:40074000000000002500180100000000000000000000000000000000000000000000000000000000000000000000000000000000000000000000000000000000000000003B
:400780000000000000000000000000000000000000000000000000000000000000000000000000000000000000000000000000000000000000000000000000000000000039
:4007C00000000000000000000000000000000000000000000000000000000000000000000000000000000000000000000000000000000000000000000000000000000000F9
:4008000000000000000000000000000000000000000000000000000000000000000000000000000000000000000000000000000000000000000000000000000000000000B8
:400840000000000000000000000000000000000000000000000000000000000000000000000000000000000000000000000000000000000000000000000000000000000078
:0200000490006A
:0400000000004005B7
:0200000490105A
:04000000BC90ACAF55
:0200000490303A
:02000000B2A1AB
:0200000490402A
:4000000000000000000000000000000000000000000000000000000000000000000000000000000000000000000000000000000000000000000000000000000000000000C0
:400040000000000000000000000000000000000000000000000000000000000000000000000000000000000000000000000000000000000000000000000000000000000080
:400080000000000000000000000000000000000000000000000000000000000000000000000000000000000000000000000000000000000000000000000000000000000040
:4000C0000000000000000000000000000000000000000000000000000000000000000000000000000000000000000000000000000000000000000000000000000000000000
:0200000490501A
:0C00000000012E16106900012E2FC30A0B
:00000001FF